:10000000A7EF05F00000000000EF00F00000000086
:0A0010000000000000000000F3D71C
:0C001C00000000000000000000001200C6
:10002800240E0C6EB50E0D6E0D2EFED70C2EFCD7C1
:06003800000000001200B0
:0A003E00530E0D6E0D2EFED71200BA
:080048000AAF029F000E120036
:100050000B850BAF33EF00F0010E036F026B016BEA
:0A006000006B0A370233FF0E120096
:10006A00000189BF02D08A9601D08A8689BD02D052
:10007A008A9401D08A8489BB02D08A9201D08A826A
:10008A0089B902D08A9001D08A805FB002D08A886A
:10009A0001D08A988A8ABDDF8A9A89B702D08A965D
:1000AA0001D08A8689B502D08A9401D08A8489B31C
:1000BA0002D08A9201D08A8289B102D08A9001D074
:1000CA008A805FB002D08A8801D08A988A8AA1DFA2
:0E00DA008A9A5FA002D0A3DF01D0ACDF120033
:0E00E800026B016B006B086B036B000E1200C5
:1000F6000B830BAF85EF00F00369026901690069A4
:080106000A370233FF0E12005C
:0C010E005F9088C089F0AADF5F801200BB
:10011A000CB1CFEF00F00CA375EF01F00E6B000EDF
:10012A000265E6EF00F0F00E0215D8A4B1EF00F078
:10013A00023B01390F0B02270139F00B016F00391D
:10014A000F0B01270039F00B006F08390F0B00273E
:10015A000839F00B086F0E85D89002BFCAEF00F07D
:10016A0008370037013702370E2B02BFCAEF00F0FB
:10017A0008370037013702370E2B02BFCAEF00F0EB
:10018A0008370037013702370E2B0E5103656BEF24
:10019A0001F0035F0BBD08AF70EF01F0D880800E4D
:1001AA0008650031000E002301230223D8A070EF56
:1001BA0001F0023301330033034B75EF01F070EFA6
:1001CA0001F001C002F000C001F008C000F0086BA5
:1001DA00000E0E8702651DEF01F0F00E0215D8A47D
:1001EA0005EF01F0023B01390F0B02270139F00B31
:1001FA00016F00390F0B01270039F00B006F0E85D4
:10020A00D89002BFCAEF00F00037013702370E2B31
:10021A0002BFCAEF00F00037013702370E2B02BFC8
:10022A00CAEF00F00037013702370E2BCAEF00F091
:10023A0001C002F000C001F0006B000E0E970E899B
:10024A0002654AEF01F0F00E0215D8A435EF01F06D
:10025A00023B01390F0B02270139F00B016F0E85A2
:10026A00D89002BFCAEF00F0013702370E2B02BF47
:10027A00CAEF00F0013702370E2B02BFCAEF00F0B7
:10028A00013702370E2BCAEF00F001C002F0016BF2
:10029A00000E0E8702657AEF01F0F00E0215D8A45F
:1002AA0059EF01F0023B0E85D89002BFCAEF00F069
:1002BA0002370E2B02BFCAEF00F002370E2B02BF25
:1002CA00CAEF00F002370E2BCAEF00F0010E0C6FD6
:1002DA00BADE7DEF01F0020E0C6FB1DE7DEF01F0A8
:1002EA00040E0C6F03DF7DEF01F0080E0C6FF7DED2
:0202FA001200F0
:1002FC000B810BAF8AEF01F0026B0AAFFF0E026F9E
:0C030C00016F006F0A370233FF0E120071
:100318000B6B0A6B096B086B0E6B033508370451BE
:10032800085F0551D8A0053D095F0651D8A0063DD4
:100338000A5F0751D8A0073D0B5FE86BD8A0010EF4
:100348000E5F0337070E0C6F0335083709370A3776
:100358000B370E37045103A112D0085F0551D8A0FE
:10036800053D095F0651D8A0063D0A5F0751D8A090
:10037800073D0B5FE86BD8A0010E0E5F11D0082770
:100388000551D8B0053D09270651D8B0063D0A27C2
:100398000751D8B0073D0B27E86BD8B0010E0E27E0
:1003A80003370C2FD1D70235083709370A370B37EF
:1003B8000E37045103A112D0085F0551D8A0053D9E
:1003C800095F0651D8A0063D0A5F0751D8A0073D2E
:1003D8000B5FE86BD8A0010E0E5F11D008270551FE
:1003E800D8B0053D09270651D8B0063D0A27075160
:1003F800D8B0073D0B27E86BD8B0010E0E2702379F
:10040800070E0C6F0235083709370A370B370E37D6
:10041800045102A112D0085F0551D8A0053D095F1B
:100428000651D8A0063D0A5F0751D8A0073D0B5FCB
:10043800E86BD8A0010E0E5F11D008270551D8B07F
:10044800053D09270651D8B0063D0A270751D8B0FF
:10045800073D0B27E86BD8B0010E0E2702370C2F8B
:10046800D1D70135083709370A370B370E3704510A
:1004780002A112D0085F0551D8A0053D095F0651B9
:10048800D8A0063D0A5F0751D8A0073D0B5FE86B6F
:10049800D8A0010E0E5F11D008270551D8B0053D30
:1004A80009270651D8B0063D0A270751D8B0073D9D
:1004B8000B27E86BD8B0010E0E270137070E0C6F1B
:1004C8000135083709370A370B370E37045101A1B0
:1004D80012D0085F0551D8A0053D095F0651D8A084
:1004E800063D0A5F0751D8A0073D0B5FE86BD8A00F
:1004F800010E0E5F11D008270551D8B0053D092718
:100508000651D8B0063D0A270751D8B0073D0B273A
:10051800E86BD8B0010E0E2701370C2FD1D7003564
:10052800083709370A370B370E37045101A112D0A3
:10053800085F0551D8A0053D095F0651D8A0063DC2
:100548000A5F0751D8A0073D0B5FE86BD8A0010EE2
:100558000E5F11D008270551D8B0053D092706516F
:10056800D8B0063D0A270751D8B0073D0B27E86BDE
:10057800D8B0010E0E270037070E0C6F003508376C
:1005880009370A370B370E37045100A112D0085F1C
:100598000551D8A0053D095F0651D8A0063D0A5F60
:1005A8000751D8A0073D0B5FE86BD8A0010E0E5F7E
:1005B80011D008270551D8B0053D09270651D8B0F4
:1005C800063D0A270751D8B0073D0B27E86BD8B07E
:1005D800010E0E2700370C2FD1D700B10ED00451D1
:1005E80008270551D8B0053D09270651D8B0063D62
:0C05F8000A270751D8B0073D0B2712005E
:0E060400ACB202D00000FCD788C0ADFF1200DF
:10061200086B096B000E076303658EEF03F002514E
:1006220006190A6F075103277E0ED8A01FEF03F0A9
:10063200035FD8B092EF03F023EF03F0035FD8A07B
:1006420096EF03F0028F068F02C00EF001C00BF08E
:1006520000C00DF000510403F4CF0CF0015105036A
:10066200F4CF00F0F3CF08F00403F3500C27F4505A
:100672000823000E00230D510503F3500C27F450FC
:100682000823000E002302510403F3500827F450FC
:10069200002302510503016B000E0123F3500027D2
:1006A200F45001230D510603F3500827F4500023A0
:1006B200026B000E012302230B510603F3500027A5
:1006C200F4500123000E02230E510603F3500127BA
:1006D200F450022302BF76EF03F0083700370137E8
:1006E20002370307D8B496EF03F089EF03F0D880FE
:1006F200800E08650031000E002301230223D8A0DA
:1007020089EF03F0023301330033034B92EF03F01E
:100712000AAF029F000E98EF03F0010EE4DC98EF9F
:1007220003F0020EE7DC98EF03F0040E90DC1200F7
:100732000B6B0C6B0A6B086B0351D8B421EF04F0FE
:10074200028F9E0E035F03BFACEF03F0D8B4ACEF91
:1007520003F011EF04F0036D080E035DD8A0DEEF85
:1007620003F0036F083700C008F001C000F002C0B8
:1007720001F0026B080E035DD8A0DEEF03F0036FF9
:10078200083700C008F001C000F0016B080E035DDD
:10079200D8A0DEEF03F0036F083700C008F0006B4B
:1007A200080E035DD8A0DEEF03F0036F0837086B75
:1007B2000351D8A4D890EAEF03F00351D8B4EAEF7A
:1007C20003F0D8900233013300330833032FE2EFF2
:1007D20003F00BBD08A1FBEF03F0D8A0FBEF03F081
:1007E200082BD8B4002BD8B4012BD8B4022B02BFEB
:1007F20025EF04F00AAF21EF04F0021F011F001FD2
:10080200081F082BD8B4002BD8B4012BD8B4022B64
:1008120021EF04F0026B016B006B086B21EF04F017
:100822000B810BAF2AEF04F0026B0AAF2AEF04F040
:10083200026F016F006F086F0A3702332AEF04F06C
:10084200000E0C6B2BEF04F0010E0C6F56DD2BEF3C
:1008520004F0FF0E0251036F0151026F0051016F4C
:060862000851006F1200B6
:10086800939A939893909392939493968A9A8A984A
:100878008A968A948A928A9014EC00F014EC00F01C
:1008880014EC00F08A828A808A8A0EEC00F08A9A38
:1008980014EC00F08A8A0EEC00F08A9A14EC00F04E
:1008A8008A8A0EEC00F08A9A14EC00F08A908A8A00
:1008B8000EEC00F08A9A14EC00F08A8A0EEC00F034
:1008C8008A9A8A928A868A8A0EEC00F08A9A14ECAE
:1008D80000F08A968A808A8A0EEC00F08A9A8A90BA
:1008E8008A8A0EEC00F08A9A14EC00F08A8A0EECE0
:1008F80000F08A9A8A808A8A0EEC00F08A9A14ECB0
:1009080000F08A908A8A0EEC00F08A9A8A868A8495
:100918008A828A808A8A0EEC00F08A9A14EC00F0A7
:040928005F801200DA
:10092C0010D0800E00017E6F1AD0C00E7E6F17D0D3
:10093C00940E7E6F14D0D40E7E6F11D0800E7E6F0D
:10094C000ED000017E51010AECE07E51020AEDE06E
:10095C007E51030AEDE07E51040AEDE0EFD77F05EE
:10096C00006E7E51002600C07EF000C089F035EC90
:10097C0000F05F90606B60518025E96E000E812164
:10098C00EA6EEE520CE060518025E96E000E81217A
:10099C00EA6EEECF88F087EC00F0602BECD75F802E
:0209AC00120037
:1009AE000001846B856B000E855D02E10A0E845D8D
:1009BE000BE284518225E16E85518321E26E200E79
:1009CE00E66E844B852BEFD784518225E16E8551DF
:1009DE008321E26EE66A010E845F000E855B845110
:1009EE008225866F85518321876F0A0E046E000E55
:1009FE00056E066E076E7EC000F07FC001F080C0EF
:100A0E0002F081C003F081DC08C000F009C001F0E3
:100A1E000AC002F00BC003F0300E002686C0E1FFC4
:100A2E0087C0E2FF00C0E6FF0A0E046E000E056EE0
:100A3E00066E076E7EC000F07FC001F080C002F02F
:100A4E0081C003F062DC00C07EF001C07FF002C006
:100A5E0080F003C081F0000E046E031808E104500C
:100A6E00021805E10450011802E10050000A01E1EC
:0E0A7E0005D0010E845F000E855BB1D712001B
:100A8C000900F5CFE6FF0007FBE10107F9E11200D1
:100A9C00040E576E060E586E880E596E000E5A6E66
:100AAC00FF0E5B6EFF0E5C6E000E5D6E000E5E6EDA
:100ABC00FF0E0001656FFF0E666F000E676F000E74
:100ACC00686FFF0E616FFF0E626F000E636F000E9A
:100ADC00646FAC8A900EAB6E948E949C9EAA03D0DD
:080AEC00AECF00F0FBD71200B1
:100AF4000051086F0151006F0251016F0351026FE1
:100B0400036B0B6B0C6B9E0E036F0A6B020E0C6F68
:060B14008DEC00F0120060
:100B1A000001806B7EC0E9FF7FC0EAFFEECF60F084
:100B2A006051000A0EE060C088F067DD0001802B8A
:100B3A0080517E25E96E000E7F21EA6EEECF60F0CD
:040B4A00EFD71200CF
:100B4E00CEEC06F00001696B6A6B0F01386B396BE6
:100B5E003A6BC26A0F0EC16E796A786A936A816ABD
:100B6E00896AFF0E8A6E8B6AC00E926E936A010EB0
:100B7E00946E030E0B6E8A0E0C6E550E0D6E0D2EB0
:100B8E00FED70C2EFCD70B2EFAD70000000065DE28
:100B9E00010E0001896F35EC00F00C0E896F35ECFB
:100BAE0000F0010E7E6F020E7F6F150E806F000E2D
:100BBE00816FB5DE0D0E0B6EAF0E0C6EB60E0D6E9A
:100BCE000D2EFED70C2EFCD70B2EFAD70000010EE1
:100BDE00896F35EC00F0010E7E6F020E7F6F240ED2
:100BEE00806F000E816F9BDE020E7E6F030E7F6F95
:100BFE00420E806F000E816F92DE1A0E0B6E5E0E2D
:100C0E000C6E6E0E0D6E0D2EFED70C2EFCD70B2E0F
:100C1E00FAD70000010E896F35EC00F0810EAF6E31
:100C2E00AC8435DF820E0C6EDD0E0D6E0D2EFED7F2
:100C3E000C2EFCD700000000510E00017E6F000E3E
:100C4E007F6F64DF0D0E886FD6DC0A0E0001886F91
:100C5E00D2DC860ED56E850ECD6ECC6A010E0001ED
:100C6E007E6F010E7F6F380E806F000E816F57DE24
:100C7E00020E7E6F0C0E7F6F320E806F000E816F34
:100C8E004EDE0B0ED76EE50ED66EF2946B6B6C6B62
:100C9E006D6B6E6BCE6ACF6A9E90F2B40CD09EA036
:100CAE0009D09E90000E6B27000E6C23010E6D2353
:100CBE00000E6E23F2D7CFCF70F06F6B716B726B2D
:100CCE00000E716F726FCE506F27000E7023000EE4
:100CDE00716F726F6F516B25006E70516C21016ECA
:100CEE0071516D21026E72516E21036E00C06BF058
:100CFE0001C06CF002C06DF003C06EF0F4DE960E13
:100D0E00046E430E056E0B0E066E790E076E7ADCC0
:100D1E0009DD00C07EF001C07FF002C080F003C08C
:100D2E0081F0730E826F000E836F3ADE020E7E6FBD
:100D3E00020E7F6F730E806F000E816FF0DD730EEB
:0C0D4E007E6F000E7F6FE2DE9CD7FFD7A7
:100D9C0010EE15F0420E006E010E016E5A0EF66E3C
:0E0DAC000D0EF76E000EF86E46EC05F012000C
:0F0D5A0050494320466C6F77204D6574657200D9
:0E0D69004D61646520696E20496E6469610009
:060D77004C2F6D696E00B7
:0A0D7D00466C6F7720526174650028
:0F0D870062792045722E4261646875736861005D
:060D960053746172740049
:020000040030CA
:0D000100231F3CFFBF81FF0FC00FE00F4029
:00000001FF
